:020000041000EA
:1000000000B5324B212058609868022188439860DF
:10001000D860186158612E4B002199600221596106
:100020000121F02299502B49196001219960352056
:1000300000F044F80222904214D00621196600F024
:1000400034F8196E01211966002018661A6600F04E
:100050002CF8196E196E196E052000F02FF8012189
:100060000842F9D1002199601B49196000215960AB
:100070001A491B48016001219960EB211966A021F2
:10008000196600F012F800219960164914480160C1
:100090000121996001BC002800D000471248134993
:1000A000086003C880F30888084703B5996A0420EC
:1000B0000142FBD001200142F8D103BD02B5186610
:1000C0001866FFF7F2FF186E186E02BD00000240BE
:1000D000000000180000070000035F00212200005C
:1000E000F4000018222000A00001001008ED00E03C
:1000F00000000000000000000000000074B24E7A12
:1001000000200420F7010010CB010010CD010010E9
:10011000C9010010C9010010C9010010C901001077
:10012000C9010010C9010010C9010010CF01001061
:10013000C9010010C9010010D1010010D301001045
:10014000C1010010C1010010C1010010C101001067
:10015000C1010010C1010010C1010010C101001057
:10016000C1010010C1010010C1010010C101001047
:10017000C1010010C1010010C1010010C101001037
:10018000C1010010C1010010C1010010C101001027
:10019000C1010010C1010010C1010010C101001017
:1001A000C1010010C1010010C1010010C101001007
:1001B000C1010010C1010010C1010010C1010010F7
:1001C000EFF30580103800BE00BE00BE00BE00BECA
:1001D00000BE00BEF2EB8871C4F80510E4F805100B
:1001E0003802001090A31AE71E481F49086006C88D
:1001F00081F3088810471D480068002801D019487D
:10020000F3E70DA40ECC002902D000F012F8F9E7B4
:100210001749184A002000E001C19142FCD116495B
:100220008847164988471649884700BEFDE701C937
:1002300001C29A42FBD37047E4F80510C0000020C9
:10024000C0180020E4100610000004200000042064
:10025000E41006100010042000100420000000002C
:10026000704700000000000008ED00E0000000D032
:10027000C0180020243D00201D3F00101D04001068
:10028000153F0010F8B5C04606480749091A8B10FB
:10029000C90FC91810B5491003D0044B002B00D06A
:1002A000984710BDC0180020C018002000000000B2
:1002B000054B10B5002B03D00449054800E000BFF2
:1002C000FFF7E2FF10BDC046000000000839002023
:1002D00014F80110F0B5DE4657464E464546E0B5E7
:1002E0004B4B0400186887B0002804D003A900F025
:1002F0001DF900280DD10521200019F04DFB20002B
:1003000019F056FB07B0F0BCBB46B246A946A04662
:10031000F0BD01F0B1FA3F4B3F4D01939C4603BA4B
:10032000984602AB04215B5E2F689B4602AB062118
:100330005B5E02A99A4602AB08269E5F3A010096D0
:1003400046460A23C95E624402A88C4602A90E23CF
:10035000C05E0C23C95E16605E463612B0465E462D
:10036000F6B23602B3464646F6B2B04656463612A6
:10037000F6B23604B14643465E461E435346B04687
:100380001B069A464E4643461E43B04656464346D3
:100390001E435660009E013733129946F3B24E4613
:1003A000F6B2B14666463612F6B23604B0464E464E
:1003B0001B0233434646334366461B0236061B0A7E
:1003C000334393600B12C9B20902DBB20B43011233
:1003D000C9B209040B4301061802000A0843D060A1
:1003E0002F60042F00D886E700F01EF9002802D104
:1003F00000232B607FE70121002006F0EBFC502159
:10040000019800F01FF90021002006F0E3FCEFE75F
:10041000B81B0020C81B0020BC1B002030B583B0D7
:1004200003F0AEFE06F0E6FC002800D0FEE71A4C12
:100430001A49200006F08AFC0321042000F018F974
:100440000321052000F014F900220121042000F00E
:1004500029F901AD00220121052000F023F9210036
:10046000280000F025F8280000F024F80C4B0D4877
:100470001D6000F0ABF80C4C0C49200019F060FA3C
:100480000521200019F088FA200019F091FA19F0DE
:100490009FFA002003B030BD38130020801A0600F8
:1004A000B81B002018F80110A81B0020D50200106E
:1004B000016070476C2370B50026050084B003AC62
:1004C000FF3323806A3B220068210068FF3B0096CF
:1004D00006F066FC134B2200238028680223682163
:1004E000009606F05DFC104B220023802868022352
:1004F0006821009606F054FC1B2322002380286804
:1005000068210096193B06F04BFC1C2328682380C9
:100510002200682100961A3B06F042FC012004B03C
:1005200070BDC0461A020000190400000F223B23D0
:1005300070B588B06A4413703A3B05000C0000683F
:100540006821009306F02CFC00281EDB002304AE7B
:1005500028683200009368210E3306F02BFC002837
:1005600013DB338801205BBA238073885BBA638016
:10057000B3885BBAA38033895BBAE38073895BBAC3
:100580002381B3895BBA638100E0002008B070BDAD
:1005900010B5042807D11378052B05D03E2B02D1C6
:1005A0009378012B08D010BD0122074B5242012045
:1005B0001A801DF025F8F6E70421100019F04AFA18
:1005C000014B1880EFE7C0467012002000B585B0DF
:1005D0001DF086FB11F08AFA002200210E480EF071
:1005E0002FF80E480E4B43601AF064FB00230722DD
:1005F00002930093019230210022302011F08AFFF3
:1006000008490F201CF0A8FF01201CF0F9FF012071
:100610001CF09CFE05B000BD34F80110C01B00208A
:100620009105001024F80110044B1888044B9C46D7
:100630006044431E9841C0B27047C046701200200B
:100640000100FFFF084B02001888084B10B59842C4
:1006500007D08BB20A210EF01FF843425841C0B2B6
:1006600010BD0020FCE7C04670120020FFFF000014
:10067000094A83009A1810B5146840225440803209
:100680002240064CC000A44663441A60044B9C46BA
:100690006044416010BDC04604C0014004D0014028
:1006A00000400140074B8000C3181B68C90092003E
:1006B0000A435A400C231340034A944660440360A3
:1006C0007047C04604C0014004D0014080000029AA
:1006D00005D0064B9C460223604403607047044BE0
:1006E0009C46022360440360F8E7C04604E00140F2
:1006F00004F00140D0231B061B6830B505005842AA
:1007000043412F205B4283430E48EC088446072078
:1007100028408000814020000B4D3C306344800025
:10072000A40041511B19002A05D080229201944651
:100730006344196030BDC02292019446634419603D
:10074000F8E7C0463041014000400140D023F0B5F9
:10075000C6461B0698461B680C4F9B001600FA58AD
:1007600004000D0000B5104209D1290014430D20EA
:100770003200FC5000F09CF980BCB846F0BD01F09E
:10078000BDFA43461B689B00FA58EEE73839002053
:1007900010B504000D2000F07BFAD0231B061B6867
:1007A00002499B005A58A2435A5010BD38390020C4
:1007B0000123D0228340120693629361094A830089
:1007C0009A1811684022514080320A400649C00000
:1007D0008C4663441A60054B9C4605236044436085
:1007E0007047C04604C0014004D0014000400140B1
:1007F0008023DB051868000F7047C0460FB400B5B2
:10080000084883B003F00CFD049B002B07D005A91A
:100810001800019103F04AFB034803F001FD012099
:1008200003F05CFBDCF80110E4FF0110EFF3108033
:1008300072B6034A1368002BFCD0BFF35F8F70477A
:100840002C0100D0BFF35F8F0022024B1A6080F3AF
:10085000108870472C0100D070B5EFF3108C72B681
:100860000D4D2B68002BFCD0BFF35F8F0724CB0806
:10087000C618C05C01230C40A3401C000440034286
:1008800007D118433070BFF35F8F2C608CF3108852
:1008900070BD1000FFF7B2FF2C0100D0F8B547463D
:1008A000CE46884680B5EFF3108C72B6214D2C6889
:1008B000002CFCD0BFF35F8F9A422CD8D4080727B6
:1008C000055D061901241740BC402C421FD00721AA
:1008D0000127894609E0D408055D06194C46390010
:1008E0001440A1400C00294211D001329342F2D2AF
:1008F00001204042BFF35F8F00220E4B1A608CF341
:10090000108800280FDBC0BCB946B046F8BD2543AF
:1009100010003570EEE7BFF35F8F00232B608CF380
:100920001088012040424346002BECD00898FFF786
:1009300065FFC0462C0100D030B5EFF3108C72B6C5
:100940000A4C2368002BFCD0BFF35F8F07230122E2
:100950000B409A40CD08435D93434355BFF35F8FEF
:10096000002323608CF3108830BDC0462C0100D0DA
:10097000044A1078431CDBB2172B00D910231370E4
:100980007047C0467212002010B5064B064C82B06C
:100990000100009318221F232000FFF77FFF02B001
:1009A00010BDC046ECF80110A02500200021044B2A
:1009B000044ABFF35F8F02C39342FAD17047C04627
:1009C000000100D0800100D0054B064A1360064AA2
:1009D000136053609360D3601361536193617047F8
:1009E0008080808000E400E004E400E01F231840E1
:1009F0001E3B8340002905D0C021044A49005350C2
:100A000013607047802201498B50FAE700E100E053
:100A100001228240034B1B6813405A1E9341D8B2F7
:100A20007047C04600E100E001238340014A1360A3
:100A30007047C04600E200E0064B10309B68800023
:100A4000C358054A00209B1A2F229A424041C0B247
:100A50007047C04600ED00E07412002070B50D0034
:100A6000EFF3108672B60F4A1368002BFCD0BFF369
:100A70005F8F0D4B10309B6884001B590B4A9342CB
:100A800003D09D4201D001F039F9074B9B681D51FD
:100A9000BFF35F8FBFF35F8F0022024B1A6086F3B4
:100AA000108870BD240100D000ED00E0C1010010ED
:100AB000F0B54E464546DE465746E0B583B00600E3
:100AC00000919046EFF3108B72B6654A1368002BC5
:100AD000FCD0BFF35F8F0025624B5D579A46002D17
:100AE00000DA79E052466B005F4C5F19BF0001935A
:100AF000E31999469B79103613705C4BB6009B68DE
:100B000099590B1B2F2B33D9594B994200D07CE0BC
:100B1000019B02379C46574B6544AD006353564BCF
:100B2000E719043BDB1B554A1B055B0D6519134395
:100B30006B80534B0121AB80FF23AB714346EB71BC
:100B4000009BAB604B460B431900484B9B68995187
:100B5000BFF35F8FBFF35F8F0022414B1A608BF3AF
:100B6000108803B0F0BCBB46B246A946A046F0BD13
:100B700001200A008243D379434549D9BC46474600
:100B8000884607E05800C01880002018C179B94293
:100B900028D902000623D356002BF3DA9A46131DF8
:100BA0009C464146B846374F484663460438C01A0B
:100BB0000005324B400D1843019B908095715A19E6
:100BC00053469200A418A37143462F4AE371009B39
:100BD0002260A780A360B8E701F090F80025534693
:100BE0005D577FE79A464146131DB84667469C46C7
:100BF0009088043740050015E7196044C01BE027C2
:100C00000005400D3F020743CEE701F077F87FE78C
:100C100013001E491B1B5B415943090D154BBD1C9D
:100C2000E353154B6519043B5B1B1B05134D5B0D13
:100C30002B43AC464D466B8065460437131FE719BE
:100C4000DB1B1B055B0D1D434B4699714146D9715A
:100C500000999D80996049460B4B0143136074E7EE
:100C6000240100D00E3D00207412002000ED00E0B1
:100C7000C101001000A1FFFFA412002000E0FFFF4F
:100C800001BDFFFF01BD000001488047AAAA000086
:100C9000F0B5DE4657464E464546E0B50C0083B0FB
:100CA000EFF3108872B6634A1368002BFCD0BFF3D1
:100CB0005F8F614B61499A68030010339F00D559DB
:100CC00000938D4243D0A54254D05D4EAA1B2F2ADB
:100CD0003DD85C4B9C461B689A4601231A009946F6
:100CE0008240534613401F2201934B4602409340DB
:100CF0009A468022634650469850BFF35F8FEFF3C9
:100D000005839B46002B37D0009B5B4501D000F04C
:100D1000F5FF2A004B469A439068844208D177E059
:100D20004B005B189B00F3189868844236D01A0079
:100D3000062151560029F3DA844255D0019B002B3D
:100D400027D0C02251463F4B5200995019603A4B70
:100D50009B68DD51BFF35F8FBFF35F8F0022354B80
:100D60001A6088F3108803B0F0BCBB46B246A946AF
:100D7000A046F0BD0D00EAE72A004B469A43906872
:100D80008442D5D106201056130000280ADA0D003F
:100D900032E0802351462B4AD150D8E7062018561E
:100DA000002822DB42001118890074188946A168C6
:100DB0009960E179D971062161569971002925DB85
:100DC000A488F11A640524154C440919E024090586
:100DD000490D24022143998013181B4A9B00117866
:100DE000F31899711070A9E713005946002914D11E
:100DF000FF3191711549918013490A789A71144A0B
:100E00009B1B5B415A43120D0A7097E71149E2E7B9
:100E10000620105613000028C4DA0F4A0F49D21AD0
:100E2000083A5002400D014399800D4952080A4387
:100E3000DA8083E7240100D000ED00E0C10100105A
:100E40007412002000E100E00E3D002001BDFFFF14
:100E5000AAAA000001BD0000AE12002000F0FFFFB2
:100E600000F8FFFF10B58308040003202040FF2492
:100E7000054AC0009446844081409B0063441A6840
:100E8000A2430A431A6010BD00E400E070B50124DB
:100E90000443EFF30581EFF3108C72B6214A136817
:100EA000002BFCD0BFF35F8F1F4B05001F4AED1ACC
:100EB0006D416A43120D1E4D8900AE6852B27658DC
:100EC000A6421CD00621595691421CD012215956D7
:100ED000914222D01E215956914220D02A215956A2
:100EE0000324914210D0134B19781A708171BFF30B
:100EF0005F8F00220B4B1A608CF3108870BDAB68BB
:100F00000D4C5C50EFE700246100091989005B1863
:100F1000FF21997109499980E5E70124F4E702244A
:100F2000F2E7C046240100D074120020AAAA0000F3
:100F300000ED00E00E3D0020C101001001BDFFFFEB
:100F40001F2110B5091A0248FFF7F6FC10BDC04674
:100F5000233D002010B5084B084C82B001000093DF
:100F6000002205232000FFF799FC002801DB1F2346
:100F7000181A02B010BDC04608F90110233D002028
:100F800070B504000E001500FFF7F2FC0100200010
:100F900000F006F8A680E580BFF35F8F70BDC04605
:100FA000024B9C4661448900016070474000003458
:100FB000F0B5FF23C646144D144F2C00984600B5DB
:100FC000BD420DD31DE0FFF7D3FC01002800FFF761
:100FD000E7FF4346B380BFF35F8FBC4211D22500C9
:100FE000236826000834002BEDD1FFF7C1FC010077
:100FF0002800FFF7D5FF43463371BFF35F8FBC4234
:10100000EDD380BCB846F0BDB8180020C018002051
:1010100010B50400FFF7ACFC01002000FFF7C0FF93
:10102000FF232371BFF35F8F10BDC04610B50400CE
:10103000FFF79EFC01002000FFF7B2FFFF23A38013
:10104000BFF35F8F10BDC04610B504000120FFF74D
:101050009BFC034BC3189B002360BFF35F8F10BD45
:1010600040000034034B9C46614489000160BFF39B
:101070005F8F7047400000340A4B1968EFF310800F
:1010800072B60A68002AFCD0BFF35F8F1B68BFF3FB
:101090005F8F00221A6080F3108840BF002000217B
:1010A0007047C046503A0020F0B5DE4657464E46DF
:1010B0004546E0B585B0EFF3058203231340B54AFA
:1010C0009900575801229A4088469346B24B1A60BD
:1010D000B24B02935B46B24843630823FE5E002E88
:1010E00035DABB881BB2002B00DBA8E0BB79002BF4
:1010F00000D0E9E00823F85E00281EDB43007A698F
:101100001B18DB00D3189D68DC686B1C00D108E15C
:10111000A34801004144826A0B69AE1A9B1A9E42A1
:1011200013D35A46036A1A420FD09D4800F09CFB25
:101130008C4202DCCED18542CCD940BF05B0F0BC98
:10114000BB46B246A946A046F0BD0D61EDE77A69FF
:10115000730091469B19DB0099444B469C68DD68FF
:1011600000F082FB8D42BCDC00D1FCE0002D00DAF7
:10117000E1E04A464B4652691B699246029A934205
:1011800000D1D2E04A460821785E528800045146D8
:1011900010439847009001910099019A0B001000AC
:1011A000134300D1C7E013000A00002800DBDEE093
:1011B00020002900801A99414B469860D96000228E
:1011C0009A5E002A00DA8CE753009C187D69E400DF
:1011D0002C190093A368E4689A468C4200DD80E7EE
:1011E00002D1834200D97CE708239C46BC443A8163
:1011F00003976746009BB4463E000EE08C4200D148
:10120000C3E01E000023F25E002A0BDB53009C1893
:10121000E4002C19A768E468BA469B18DB00EB18B9
:101220008C42EBDD330066469C464B461A80634693
:10123000039F1E80BB881BB2002B00DA56E73A6979
:10124000EFF3108172B61368002BFCD0BFF35F8FF1
:101250000123BE885B42BB8036B23B69BFF35F8F20
:1012600000221A6081F31088002E00DA3EE73B006E
:1012700008333A0099467D6973009B19DB00EB182F
:101280009968DC688C460820115E4846002910DB0E
:10129000009306E0A34240D00023F95E3800002905
:1012A00006DB4F007F18FF00EF19FB68A342F1DD5A
:1012B000009B068000201E5E1980002EDCDA1700DD
:1012C000BB79002B00D115E70023BB713D0008233B
:1012D000F95E08354B1C00D12FE77C690800A44655
:1012E00003E035004B1C00D106E74B005B180A00F9
:1012F0006146DB00CE18C95E73881BB2002BF0DAA2
:1013000001235B42DC17B360F4608242EAD029809B
:101310003B89100033803A81E4E7BB686345BBD961
:10132000C6E7631C00D0F3E6FFE6534650461B6950
:101330009847002823D14B461B883A693B81EFF33D
:10134000108372B611680029FCD0BFF35F8F494645
:101350007A880A803A697E80BFF35F8F002111602E
:1013600083F31088BDE6844200D8FFE6B9E60C4856
:1013700000F07AFA009B019CC01861411CE75346BB
:101380001A685B680092019306E7824500D838E747
:1013900048E7C046283900203C700540A9100010DD
:1013A0000040054070B52E4C2569002D04D00A215F
:1013B0002C48FFF7F5FD70BD2B4E0321300000F0E7
:1013C00049FAE660FFF7D4FA284B03229C46D02363
:1013D00022701B061B6801216370254B6044A360CB
:1013E0000F23800020610220638063694942A1804D
:1013F00019800231198647311D83585218315A52CB
:1014000075325C39995218320131995218320131D2
:101410009952183201319952083518329D520231D1
:1014200018329952183201319952183201319952B9
:101430001832013199521832013199521832013162
:1014400099520C4B0C49DC6001303562FFF706FB0A
:1014500001210320FFF7CAFA084B1D60A7E7C04629
:10146000BC120020503A00200040054040000034EB
:10147000FFFF100028390020A91000103860054037
:1014800000487047BC120020F8B51F0008AB1B785D
:1014900004001600002B08D100F0EEF932003B00EA
:1014A000121A8B41002B00DA53E02269EFF310800F
:1014B00072B61368002BFCD0BFF35F8F0223E15E8E
:1014C00063694A005218D2009B18002937DB1A883A
:1014D00062802269BFF35F8F0025156080F310885A
:1014E000069A9E60DF601A61079A5A615A88013233
:1014F0005204520C101C002A1FD082B258800804DB
:1015000010432669EFF3108772B63268002AFCD0C8
:10151000BFF35F8FA2881A80A1802369BFF35F8F1A
:1015200000221A6087F310880B4923788C46013219
:101530009A40E36863441A60F8BD0120DDE723693F
:10154000BFF35F8F00221A6080F3108801204042B1
:10155000F2E70020F0E7C0463C20000070B5010033
:101560000469EFF3108C72B620680028FCD0BFF33A
:101570005F8F02200D5E4C6968004019C00024187E
:10158000002D37DB208848800869BFF35F8F002675
:1015900006608CF31088E36063880498013320614F
:1015A0005B0405985B0CA26060611A1C002B1FD0C5
:1015B00093B22804628018430A69EFF3108C72B664
:1015C0001368002BFCD0BFF35F8F8B8823808D8046
:1015D0000B69BFF35F8F00221A608CF310880B78C1
:1015E00001329A40CB6808498C4663441A6070BD4A
:1015F0000122DDE70B69BFF35F8F00221A608CF3D5
:10160000108801204042F2E73C20000010B54389D9
:101610000A1493421ADD53009B184269DB00D31869
:101620000469EFF3108C72B62268002AFCD0BFF375
:101630005F8F5A88090494B2090C8A4208D0036962
:10164000BFF35F8F00221A608CF31088002010BD5A
:101650008022120214435C80012302698371BFF36C
:101660005F8F002111608CF31088044902788C464A
:101670009340C268012062441360E8E73C20000008
:1016800040787047F0B504000D0006267642F71743
:10169000C64636196F4100B582B08F4214D811D0BA
:1016A00000F0EAF832003B00121A8B41002B17DCE5
:1016B000002B47D02000290000F0E8F802B080BCE1
:1016C000B846F0BD8642EBD90022002316001F0069
:1016D00000F0D2F832003B00121A8B41002BE7DDFC
:1016E00000F0CAF832003B00121A8B41002B0ADBD3
:1016F00000230193154B3200009315483B00FFF780
:101700002DFF0028D6DB00239C46B046114A124E1E
:10171000736A9F4204D8B16A4145CBD29F42C9D176
:101720001168EFF3108072B60B68002BFCD0BFF38A
:101730005F8F1368BFF35F8F6146196080F3108875
:1017400020BFE5E7002AB5D0CAE7C04679100010EF
:10175000BC120020503A002000400540F0B5D646AB
:101760004F464646C0B504000D0082B0EFF3058732
:101770008946002F0ED0344900204B6AAB4203D378
:101780008A6A0130A24226D302B0E0BCBA46B14612
:10179000A846F0BD2D4B9846DB689A464346504616
:1017A0001E7800F061F80B00514602000436B600C6
:1017B000715820008E1A2900801A99418F4211DC3D
:1017C0000ED020BF204A0020536A4B45DCD3926ADA
:1017D0000130A242D8D25B1B5A1E9341D8B2D3E744
:1017E0008642EED900F048F822002B00121A8B41F5
:1017F000002B1ADB00230193154B22000093404677
:101800002B00FFF7ABFE011E0FDD0F4B5A6A4A4556
:1018100017D39B6AA34212D34046FFF7F7FE0A4A4A
:101820000020536A4B45AFD3D1E7074A0020536AE3
:101830004B45A9D3926A0120A242A5D2CBE74A45E3
:10184000EAD120BFE8E7C04600400540BC120020B6
:101850007910001010B5024A0248FEF7FDFF10BDD6
:1018600030F90110A42500200300416A0A00986A9B
:10187000596A8A42FAD17047034B596A0A00986A3A
:10188000596A9142FAD1704700400540064A536AAE
:101890009942FCD807D1044B02E05A6A914202D126
:1018A0009A6A8242F9D3704700400540F8B5DE4697
:1018B0004E4657464546E0B58B4605000A99180046
:1018C000160000F07BFB0A9B6C001F02314B641971
:1018D0009C46A4006444636881469F4200D96760C7
:1018E0002B1FDBB29846C02342469B01E318012A16
:1018F0002DD9802212011A60274BAD0059599A4602
:1019000000291BD17301E026226853401E4080232A
:1019100042465B01E3181E60012A2DD980238022F4
:101920009B01E31812011A6053464A4667605A51F8
:10193000F0BCBB46B246A946A046F8BD586900F0C7
:101940003DFB013043001B18033BFDD2DAE75A464A
:10195000012ACED102321A60023AA3681A42FCD0A0
:101960007301E0262268AD0053401E4080230A4ADE
:101970005B019246E3181E605A46216851400322DB
:101980000A401A6001225B469A40A3681A42FCD0C2
:10199000C4E7C04600800040AC250020F0B54646B4
:1019A0004F46D646C0B51F00334B44009C46241812
:1019B000A4006444636888461600FF2B02D8802385
:1019C0005B006360031FDBB29A46C02352469B0153
:1019D000E318012A2DD9802212011A60274B8500B5
:1019E0005959994600291BD17301E02622685340BA
:1019F0001E40802352465B01E3181E60012A2DD948
:101A0000802380229B01E31812011A6080235B006F
:101A100063604B465F51E0BCBA46B146A846F0BD94
:101A2000586900F0CBFA013043001B18033BFDD28C
:101A3000DAE74246012ACED102321A60023AA3689E
:101A40001A42FCD07301E0262268850053401E40F4
:101A500080230A4A5B019146E3181E6042462168D2
:101A6000514003220A401A60012342469340A26873
:101A70001342FCD0C4E7C04600800040AC250020E3
:101A8000014B8000C0587047AC250020F8B5040019
:101A900020481D0017000E0000F090FA01003800E9
:101AA00000F08CFA069B29041B0319432368002BC2
:101AB0001EDB194B194DE21853425A4180235B013A
:101AC0009C461203164B62441A60164B1A601700AC
:101AD0002B689F43FBD1144B2660E2182123A060A2
:101AE00013602368002BFCDA0823E1601360F8BD63
:101AF0003F2322681340B342DBD1A3681B051B0DB3
:101B00008342D6D1EE22E368D20213408B42D0D179
:101B1000EDE7C046001BB7000040FDBF08C0004015
:101B200000E0004000F000400430000010B58024C8
:101B30001C4BE4051C6000281AD001231A4C1843E2
:101B40001A4BDC611A4C44401C6259629862802135
:101B5000144BC9051960174817490860E021C904EA
:101B60001960002A07D18022144B12061A6010BD9A
:101B70000E4BD861EBE753019B1A9B009A18802308
:101B800012015B049A4209D213000D490B60074B06
:101B90005A608022094BD2051A60E8E7094B1A0007
:101BA000F3E7C04600B00540D3C007B00080054051
:101BB0002D3FF84FFCFF01000820014000A0054028
:101BC000F4380020FFFFFF008023024A9B000B43F4
:101BD000D362704700800540142310B501001888B7
:101BE00004331B88984710BD162310B501001888D0
:101BF00002331B88984710BDF8B54746CE4680B5DE
:101C00000F1E19D014239946043304000025012621
:101C100098464B461888434621681B88984701C45C
:101C2000431E9841013540420640AF42F1D1300099
:101C3000C0BCB946B046F8BD0126F8E7142370B51C
:101C40000400188804331B880D00054998470300D9
:101C50000020002C01DB0130A04029009847C0463D
:101C60005542000001207047D0231B061A68EFF38D
:101C7000108172B6024B92000020D1507047C046CE
:101C800048370020D02212061268034B9200D35826
:101C900083F31088002070474837002000487047C1
:101CA000D4120020F8B506000F001500FFF7F6FF6C
:101CB000041E0AD0436828009847002804D1380041
:101CC000B0472800A3689847F8BD04204042FBE7CE
:101CD000AA23064A1B0113608D235B00D3600449CD
:101CE000044B19605368002BFCDA70470040024037
:101CF00000B0FA00006002407047C04610B50148CD
:101D0000FEF77CFD54F9011070B5074D074EB54242
:101D100009D20024013E761BB60808CD984723005F
:101D20000134B342F9D170BDD0F701100CF80110A5
:101D3000054B064A06491A60064A074B1A6010000E
:101D40000B689843FBD1704700E00040BFCDFBFE1D
:101D500008C00040FE7F3C0000F00040044BDB6CFC
:101D6000002B03D18022034BD2021A607047C04679
:101D7000000011504C201150044A054B1A60054ACE
:101D80001368DB018033FBD17047C046FFFFFF01C2
:101D900000F0004008C000404022034B9A675A6799
:101DA0001A67DA667047C04600F0014010B5FEF7CA
:101DB000FDFD10BDF8B52B492B4C2C4D641AA61017
:101DC0003200302E00D930222800920000F0DAFCD8
:101DD000BC2C3ED8731C18000127254A302B3BD958
:101DE0002F212C196407E40F891B052917D9302BE3
:101DF00015D8002C33D0B300EA503F1B33199B0099
:101E00007908EB18C900C9181A605A6008338B4268
:101E1000FAD101233B421CD09F433E18731CB100F2
:101E20006A50302B15D09B00EA50B31C2E2E10D0D8
:101E30009B00EA50F31C2D2E0BD09B00EA50331D63
:101E40002C2E06D09B00EA50731D2B2E01D09B0038
:101E5000EA50084B9D60F8BD2F37BF1BC0E730002C
:101E6000CBE7C04600010010C001001000000020B8
:101E7000C101001000ED00E0002310B5294C82B034
:101E8000A367FFF725FF0122274B1A60636C012B24
:101E9000FCD10322254B1A60224A936B012BFCD103
:101EA000013300930121224A22480433FFF7EEFD5B
:101EB000052301210093204A2048FFF7E7FD002277
:101EC000022104201E4BFFF769FD0022012105209D
:101ED0001C4BFFF763FD0022002107201A4BFFF780
:101EE0005DFD002200210820174BFFF757FD8023DE
:101EF000DB000093002200210920134BFFF7D6FCE2
:101F00000022104B00210620FFF748FD0420FFF7B8
:101F1000B7FD0E4900F052F801000020FFF754FE13
:101F200002B010BD008000403CB0004030B0004026
:101F3000002F685900800240008C864700C0024094
:101F4000001BB70040597307006CDC0240420F00D1
:101F500001480421014B1847E0120020F91B001032
:101F6000014B9B6818470000E0120020124A936F53
:101F70009B0815D29066D166002905D0FFE7FFE7E0
:101F8000FFE7516F106F704704B580210906C21733
:101F90005140002800D0C8431DF0C2FB002104BD01
:101FA000F0B5146E556E576F166FFFF7E3FF1466AA
:101FB000556657671667F0BD000000D0114A936F51
:101FC0009B0813D210665166002905D0FFE7FFE792
:101FD000FFE7516F106F704704B5002801D0002053
:101FE000C0431DF09DFB002104BDC046F0B5146E3A
:101FF000556E576F166FFFF7E5FF14665566576706
:102000001667F0BD000000D094464A4A926F9208CD
:10201000624601D228E0C046F0B5464E346E756E79
:10202000776F366F00F020F89446424A1466556682
:10203000576716676246F0BD94463E4A926F920813
:10204000624601D254E0C046F0B53A4E346E756E29
:10205000776F366F00F04CF89446364A1466556632
:10206000576716676246F0BD002B24DB11D00029AC
:102070003EDA00B5C943404200D1013100F038F8E2
:10208000C943404200D10131DB43524200D1013308
:1020900000BD002AEBD1002801D1002905D0002085
:1020A000C90FC90701D1C043410800B51DF010FB9D
:1020B0000022002300BD00B500290ADBDB435242A9
:1020C00000D1013300F014F8C943404200D101317E
:1020D00000BDC943404200D10131DB43524200D12F
:1020E000013300F005F8DB43524200D1013300BD5B
:1020F000002923D1002B18D1002A0CD0BC460D4F4B
:1021000038667A6600210023FFE7FFE7FFE77A6F72
:10211000386F67467047002801D00748010000B5B6
:102120001DF0D6FA0022002300BD02000B000020A3
:1021300000217047000000D0FFFFFFFF002B00D000
:10214000BFE0130C28D1002AE7D080B4114F3966C4
:102150007A66FFE7FFE730B4040C7B6F396F1B042E
:1021600023433B667A66FFE7FFE7FFE7C04684B29A
:102170007B6F3D6F1B0423433B667A66FFE7FFE7F7
:10218000C04600232C042D0C7A6F386F001969416A
:10219000B0BC7047000000D0F0B594460025140E86
:1021A00001D112020835140F01D112010435940F28
:1021B00001D192000235D40F01D152000135D40B68
:1021C0000134254F7C66254C3C660E0C93B2FFE72C
:1021D000FFE7FFE73C6F6643360C7703BE46734369
:1021E000DF0B5B04C01AB941130C7343DB18C91A27
:1021F000CE086643360CB64493B273431F0F1B01DF
:10220000C01AB941130C73431F0B1B05C01AB94107
:10221000860D8F023E436643360C092D24DB520A9D
:102220007243801A7703460A6643360C16235B1BFB
:10223000DE40DF40BF1964466643821B70460435AA
:1022400006330100D940A840C01900D30131A24291
:1022500006D20023F0BD0000000000D0FFFFFFFF0A
:10226000121B0130F3D3F1E709277F1BFE406446C0
:10227000A2B27243801A00D20139220C7243130CAD
:102280001204821A99410B0070460435133701007D
:10229000F940A840801900D30131002B02D1A2429D
:1022A0000AD2F0BD013000D30131121BFAD2013B3A
:1022B000F8D1A24200D2F0BD013000D30131121B8F
:1022C000F7E7F0B51C0C00D080E00CB400251C0A28
:1022D00004D11B02160E3343120208351C0B04D125
:1022E0001B01160F3343120104359C0B04D19B00D4
:1022F000960F334392000235DC0B02D192185B41FA
:1023000001351C00971864410134464F7C66464CE9
:102310003C660E0CFFE7FFE7FFE7C0463C6F6643F5
:10232000360C7703BE4697B27743C01B00D2013903
:10233000C01B00D201399FB27743C91BC91B170CC0
:1023400077437E04FF0B801BB941CE086643360CF1
:102350000C2D33DBB644120B1F053A431B0B97B20F
:102360007743C01B00D201399FB27743C91B170CBA
:1023700077433E043F0C801BB941860D8F023E43DC
:10238000664329277F1BFE400C3D7746AF40BF19AF
:1023900030BCA2B2ABB272437343801A9941220C93
:1023A0007243130C1204801A994102000B0001378A
:1023B000001BA941F9D2781E0021F0BD0C277F1B1C
:1023C000FE4077467F0BAF40FF19E0E700245D1C1D
:1023D00007D0144F7D663966FFE7FFE7FFE7FFE7A9
:1023E0003C6F95B29EB265436643401BB141150CEC
:1023F0001E0C6543664336042F0C3E432D04401BE0
:10240000B141994204D202000B0020000021F0BD2E
:1024100001D19042F7D3801A994101349942F2D305
:10242000F6E70000000000D0FFFFFFFF48404140FA
:10243000484018B4134B5B68019308BD18B4114BA6
:102440001B68019308BD94460F4A926F920805D20B
:10245000624618B40B4BDB68019308BD0A4AF0B51D
:10246000146E556E576F166F6246FFF7F2FF064AFD
:102470001466556657671667F0BD18B4014B9B6824
:10248000019308BDA81A0020000000D0FFB55040FD
:102490004240504059404B40594000E0FFB5154F75
:1024A0004C00640D03D0BC4204D10C0314D80020AE
:1024B000090D09055C00640D03D0BC4204D11C0366
:1024C0000AD800221B0D1B0501264B4009D44B40A6
:1024D00003D58B4200D18242FFBD9942FCD190428C
:1024E000FFBD0B43DB1803431343F5D0C943491821
:1024F000FFBD0000FF07000000B5FFF7CFFF8041E0
:1025000000BDC04600B5FFF7C1FF01D9002000BDE6
:10251000012000BD00B5FFF7B9FF804100BD0120DB
:1025200040054A00121804D85A00121801D8002099
:1025300070470120704700000021002805D1704736
:10254000C1174840401AFAD0C90713B5064B1B689B
:1025500098470CBC441CA2401005120B0349091BF0
:1025600009051943114310BD4C3900201F04000018
:1025700010B54C00620D8023D218DB00D21A5B0527
:102580007E2A10DD9E3A13DACC1709034908194355
:102590005242D140640001341532202A05DAD0407D
:1025A0000843604310BD002010BD0846604310BDC5
:1025B000C80FC018013810BD18B4024B5B6A0193F4
:1025C00008BD0000A81A002010B50148FEF716F952
:1025D00060F90110132370B51D78012D19D014DD99
:1025E0001D48FFF701FB06001C48FFF7FDFA1C4CD5
:1025F00080223100200000F0C5F8022D06D01948D5
:10260000FFF7EAFA184B186070BD154C174BA3641E
:10261000F5E7174B124C23606360A360E36023610E
:102620006361A361E36123626362A362E362236384
:102630006363A363E36323646364A364E364236564
:102640006365A365E36523666366A366E366236744
:102650006367A367E367D9E753440000534600006C
:10266000A81A00204C3300004C39002075260010B9
:10267000C925001007B5604601880A0A0230DF2A22
:10268000FAD1C9B2820804D30288408800041043FA
:1026900000E00068014A5050039007BDA81A0020CE
:1026A00051434343C9188C46110C83B24B4310B4B9
:1026B000040C614392B280B2504362431C041B0C71
:1026C000001910BC59411304120CC0185141614447
:1026D0007047000010B50148FEF790F884F8051027
:1026E000132310B510481C78FFF77EFA0100012C67
:1026F0000AD003DD80220D4800F044F80C48FFF7B3
:102700006BFA0C4B186010BD084C5422200000F0EE
:1027100039F82200084980322368002B00D121605B
:1027200004349442F8D1E9E75346000050390020C0
:102730004C3300004C390020D526001010B50400A1
:102740001CF05AFA002804D0034B04199C4200D80C
:1027500010BD0248FEF752F80000042078F901107D
:1027600010B51CF053FA10BD01480421014B184765
:10277000F0120020F91B0010014B1B6818470000E5
:10278000F0120020014B5B6818470000F012002097
:102790007047C046F8B557464546DE464E46E0B55A
:1027A00098460A9B06009A460D9B0F00934615001B
:1027B0009B0710D10B9B0C9A93420CD213005C46E2
:1027C0000B9A9D1A5D4422004346013439002020B3
:1027D000B047A542F7D10B9C6319002C09D01D000E
:1027E00053462A1B013C185D39004346B047002C74
:1027F000F6D10D9B9B070ED55B46EC1A0C9BA342B2
:1028000009D999462A004346390020200134B047AF
:102810000135A145F6D82800F0BCBB46B246A94612
:10282000A046F8BDF0B54F464646D646C0B584B082
:1028300098460EAB1B7894469946129B0D9C109FB0
:10284000119E9A0724D4002E6AD1BC4220D20122C4
:102850001A409246202C00D1D2E00C9A551E30220C
:1028600001E0202C30D001342A55A742F9D8524635
:10287000002A0DD0B4420BD20C9A551E3022202CC7
:1028800002D126E0202C63D001342A55B442F9D17C
:10289000DA0634D55A0564D4002C5ED10F9A102A7A
:1028A00000D197E0022A00D1A8E030220C9C2270CF
:1028B00001244A46002A5ED15A0700D483E02B2225
:1028C0000C9D2A5501341CE05246002A02D0202ECD
:1028D0003ED92024DA0614D55A0512D4202F00D16F
:1028E000A1E0202E3DD120261F2234000F9D102D67
:1028F00000D18BE0022D52D030250C9FBD54202CEE
:10290000D7D103930C9B62460093029643460194F1
:10291000FFF740FF04B0E0BCBA46B146A846F0BDA0
:10292000012215001D40AA461A4229D04A46002A13
:1029300039D10C321A4236D1BC429BD2202C00D065
:102940008BE710221A40202EC3D8002AA2D1D8E744
:102950002024DA06D5D55A0503D4A74225D0B4429F
:1029600023D00F9A102A25D0022A14D0202CC8D0A8
:1029700022000134C0E72D220C9D2A550134C0E706
:10298000BC4200D384E7202C00D066E710221A4016
:10299000002AE0D1B5E7202CB3D022000134622513
:1029A0000C9FBD54E2E7013EC6E7621E012C00D138
:1029B00074E79BE79A0616D4202CA2D078220C9DAF
:1029C0002A550134D2E71A079BD520220C9D2A559F
:1029D000013496E79A060FD478220C9C227030229C
:1029E0006270022465E7202C00D18AE758250C9AF2
:1029F000121915700134B9E75822EEE76222ECE7AC
:102A0000102255461A40002D9FD1C1E7023C9D0679
:102A100004D478250C9F3D551400A9E758250C9F38
:102A20003D551400A4E71F2260E7C04610B50028FA
:102A300000D110BD01F0A8FBFBE7C0460B0010B5AC
:102A4000002802D049681B68984710BDF0B557466A
:102A50004E464546DE46E0B599B0824689469046E8
:102A60000893229A239B10001900FFF758FD0028B5
:102A700000D0CDE0229823990122D94B5242FFF792
:102A800049FD002800D0C3E0229823990122D54BAC
:102A90005242FFF731FD002800D0B9E02298239977
:102AA00000220023FFF728FD002800D0F1E1229E3C
:102AB000239F8023269ADB001A400D92269A1A4201
:102AC00001D1062324938023269A1B011A403B0040
:102AD00093460996334300D0B3E0002A00D0C2E108
:102AE000002300240A930B94002304250993259BBB
:102AF0000024AB4200D95C1B0223269A1A400C9298
:102B0000269A134203D06B426B415B421C40099BE7
:102B1000002B07D00A9A0B9B30003900FFF793FC7B
:102B200006000F002298239900220023FFF7E4FCFF
:102B3000002803D0802109067B181F00269AAA4B83
:102B4000009601971340089E0493249B03940293DC
:102B5000424633004946504600F0AAF90400002DD1
:102B600067D02020269A4946024013005A4253411A
:102B70005B42621C18400A92330022004530D04765
:102B8000099A6F1ED317D4185C40D30F9B460025BB
:102B900001E0202D13D008AA94461F23200063448F
:102BA0000A2101355E19FFF709FA30313170200032
:102BB0000A21FFF703FA26000400092EE9D80523AD
:102BC0000693002304930A3303935B46089E029303
:102BD00010AB0A9A00934946330050460597019579
:102BE000FFF720FE0C9A0400002A22D04246851AE4
:102BF000259AAA421DD9B0465746160022004346E0
:102C0000494620200135B8470134AE42F6D810E0DD
:102C1000269B42460493259B49460393249B50469A
:102C20000293229B239C00930194089B00F040F99F
:102C30000400200019B0F0BCBB46B246A946A0462D
:102C4000F0BD6A4B78009C46400D6044FFF778FC6D
:102C5000674A684BFFF711FC674A684BFFF7EEFBCA
:102C6000674A3B031B0B1A4304000D00099811002F
:102C7000644B0022FFF7DDFB634A644BFFF7FDFB6B
:102C800002000B0020002900FFF7D8FBFFF770FCC3
:102C90000990FFF755FC5E4A5E4B04000D00FFF7FC
:102CA000ECFB00225C4BFFF7C9FBFFF761FC5B4AC2
:102CB0005B4B29000C902000FFF7DFFB04000C9811
:102CC0000D00FFF73DFC574A574BFFF7D6FB0200BC
:102CD0000B0020002900FFF7ACFB04000D000200F0
:102CE0000B000A940B95FFF7C8FB04000D000A982F
:102CF0000B9902000B00FFF7A1FB00220E900F9131
:102D00004A4B20002900FFF79EFB0022484BFFF7AB
:102D100095FB02000B0020002900FFF794FB002226
:102D2000444BFFF78BFB02000B0020002900FFF74C
:102D30008AFB0A9A0B9B0D0080210400C905002024
:102D4000FFF777FB02000B0020002900FFF776FB5E
:102D500002000B000E980F99FFF775FB0022284B1D
:102D6000FFF76CFB344B0C9C9C466444230500220B
:102D7000FFF783FB04000D0002000B003000390058
:102D80000A940B95FFF7B8FB00285DD123002A00B9
:102D9000C625099963318D42AD4159466D420435CE
:102DA000002900D1A3E6134363D030003900234A41
:102DB000234BFFF7A7FB002807D000223000390083
:102DC000204BFFF799FB002853D1249B002B00D107
:102DD0008DE60D9B5A1E9341249AD31A249386E6BE
:102DE000FFFFEF7FFFFFEFFFFFF7FFFF01FCFFFF9C
:102DF000FB799F501344D33FB3C8608B288AC63FEA
:102E00000000F03F0000F83F61436F63A787D23FA7
:102E100071A379094F930A400000E03F1655B5BBF6
:102E2000B16B0240EF39FAFE422EE63F00002C4023
:102E30000000244000001840FF0300002D431CEB5D
:102E4000E2361A3F80842E41099B0022013B099300
:102E50002000164B2900FFF7F6FA0A0001000300D4
:102E60000A910B9294E7002300240A930B94002309
:102E70000993249A099B9A4214DDD31A013B2493A7
:102E80008023269ADB001A4300230025269209930B
:102E90002DE6802212069446229B1E00239B63444B
:102EA0001F0006E600232493EAE7C0460000244002
:102EB000F0B54546DE464E465746E0B595B08B46E2
:102EC000904699461E9A1F9B0A9019001000209D5B
:102ED000FFF725FB002800D0B0E11E981F990122C2
:102EE000C74B5242FFF708FB002800D037E11E987D
:102EF0001F990122C34B5242FFF70CFB002800D060
:102F0000A7E01E981F990022BF4BFFF703FB002884
:102F100000D088E01E981F990022BC4BFFF7ECFA06
:102F2000002800D07FE01E981F9900220023FFF7A1
:102F3000E3FA002800D0FAE000230B938023229CC0
:102F4000229ADB001C401A4200D102E1092D00D870
:102F50007EE106A98C462C00172200233021093C73
:102F600062440133D154EF1A202B00D132E1A34245
:102F7000F7D10022A44B069207931E981F99FFF7E2
:102F8000F7FA0500FFF7DCFA02000B001E981F9904
:102F9000FFF74FFA069A079BFFF76FFA089009911F
:102FA000FFF70AFB0600FFF7C7FA02000B000898BC
:102FB0000999FFF73EFA0022954B08900991FFF717
:102FC000A9FA002800D1D2E001363000FFF7B4FAA8
:102FD000069A079BFFF796FA002801D000260135D4
:102FE000AA46002F00D098E02800FFF7A9FA0200B7
:102FF0000B001E981F99FFF71CFA854B0022060054
:103000000F00FFF779FA0CAB9A46002845D1002251
:10301000300039007E4BFFF77DFA00283DD1EB07E9
:103020003BD5013539E0229B42460493219B59460A
:1030300003930A981E9B1F9C0295009301944B4694
:10304000FFF704FD15B0F0BCBB46B246A946A0464A
:10305000F0BD229B5B0767D403226E4B229901923D
:10306000039121990291009342464B4659460A9892
:10307000FFF790FBE6E706AA94461723280063446F
:103080000A2101341E19FEF771FF3031280031701A
:103090000A21FEF76BFF051E76D0202CEBD103230F
:1030A000229A1340012B1DD1219B002B1AD00B9B80
:1030B000002B00D0BBE0229A0C33134200D0B6E0C4
:1030C000219BA34200D887E006AB9C461722302301
:1030D000624404E02199013413558C4259D0202CCC
:1030E000F8D12024229B01940393219B0293534601
:1030F000B9E706AA944617230A2163443000013435
:103100001D19FEF75BFF3031297030000A21013FA5
:10311000FEF754FF092E46D90600202CE9D155466A
:103120000CAB20249A46B8E704223B4B96E71E9A44
:103130001F9B00200021FFF77CF901230B938023C4
:10314000229C229ADB001E901F911C401A4200D044
:10315000FCE60022314B0627069207930DE7229BDF
:103160000393219B0293042301932D4B7BE70022C1
:1031700008980999264BFFF7BFF9002800D02FE7E0
:10318000002E4FD101362BE70323229A1340012B47
:1031900068D0202CA6D00B9B002B1FD02D2352468D
:1031A000135501349EE75546202CB9D030223B19E7
:1031B000002F4BD0172006A9013409180A55202CDE
:1031C000AED09C42F6D10CAA92462E2251465C1CEF
:1031D000CA5462E72024CCE6202C83D0229B5B07D4
:1031E00008D4229B1B0700D47CE7202352461355AA
:1031F000013477E72B2352461355013472E7C0465A
:10320000FFFFEFFFFFFFEF7F65CDCD4165CDCDC166
:103210000000E03F24FA01101CFA011080842E41C6
:103220002CFA0110F30700D4DAE60136D8E6219B28
:10323000013B2193A34200D946E7AAE7229B0393CF
:10324000219B029303230193084B0CE72300BAE769
:10325000074BEA009B185C681B682F0006930794D5
:1032600000248AE6219B002B93D020E728FA011046
:10327000D0FB0110F0B54546DE4657464E46E0B558
:10328000A1B01D002A9B90460B93D04AD04B834699
:103290008A461A60002900D1A4E1002328789946C3
:1032A000002800D1A6E1CB4B5E460993CA4B4C46A1
:1032B000D34647460D930AE0631C984622003B0024
:1032C0005946B04744462878002800D1CDE0013562
:1032D0002528F1D108239A46043B9946023B98469B
:1032E000013B00229C460C942878691C0300203B7B
:1032F000DBB2102B03D8099C9B00E3589F460300C8
:10330000303B0C9C0A92092B7FD9002398462A282F
:1033100000D1C1E000239A462E2800D190E003009E
:10332000683BDBB2122B1ED8AC4A9B00D3589F4699
:1033300063460D001A43D7E743460D001A43D3E70F
:103340004B460D001A43CFE710230D001A43CBE77D
:1033500053460D001A43C7E780235B000A9A68783A
:103360001A430A9201310D0067280AD82428A3D9EC
:103370000300253BDBB2422B9ED80D9A9B00D3580D
:103380009F4601006939C9B20F2995D801238B40A6
:103390009C46934B994663464A4613400C936246BB
:1033A0004B461A4200D05EE20A2900D124E10729E7
:1033B00082D10B9B02CB9846002900D19BE12120B2
:1033C0000A9A0243914610AB9C461F220F234046A7
:1033D00062440B959C46A04615000C9B0A9002E0A7
:1033E000202B0CD0110064460C4020003730092CF3
:1033F00000D807380133E8540A090F29F0D80C9394
:103400000A9B44460B9D984685E1002398460A9BFB
:1034100045469C4600E00131AB005B195B001D187E
:103420000878303D0300303B092BF4D963460A93FA
:103430000023A8469A460D0001312E2800D06EE7E1
:1034400080200A9AC00002430A92302252429446D7
:1034500068780B0084446246092A00D82EE12A28A5
:1034600000D13DE10D00013159E7DA46A146B346EE
:10347000B846C84503D801235B42434499464346B6
:103480004A4651460020D847200021B0F0BCBB4638
:10349000B246A946A046F0BD0B9B04CB9046002A3D
:1034A00004DB68780B930D00013133E70A9A283862
:1034B00002430A9242465242687890460D000B93AE
:1034C000013127E7672800D1C7E1472800D114E27E
:1034D000452800D116E20A9A0721049242460B9B26
:1034E0000392073352468B43190002920CC93000F5
:1034F000009201930B9122003B005946FFF7A6FA78
:103500000400E0E680239B0028E76878682800D163
:103510001BE280230A9A01311A430A9223E7687852
:103520006C2800D109E280230A9A5B001A430A92B0
:10353000013118E7462800D18AE10A9A072104924E
:1035400042460B9B0392073352468B43190002926B
:103550000CC93000009201930B9122003B005946A8
:10356000FFF7A6FC0400AEE6631C984622003B0071
:1035700059462520B0474446A5E60B9B04330C93DF
:10358000631C99460A9B9A0700D4E7E10B9B220033
:10359000187859463B00B04743464444012B00D8B5
:1035A000B8E22B00B84625005F464C4699462200FB
:1035B0004346013439002020B047AC42F7D12C00FB
:1035C000BB464D4647460C9B0B937CE6753200107C
:1035D000E838002034FA0110C4FA011078FA01101A
:1035E00041900000DC4B28789B4600239946002838
:1035F00000D058E600243CE70B9B02CB12930B78DB
:103600009C4618005346002B00D09CE0002812D0A6
:1036100002235B420133994689444A460B0089469E
:10362000110001E08B4203D05A780133002AF9D10E
:1036300049465B1A0C938023DB0099460A9A134093
:103640000B934B461A4204D00C9B534501D9534669
:103650000C93022399460A9A13400A934B4613424D
:1036600000D1B5E16346002B00D197E10B9B002B05
:1036700000D14CE1D1460B1B9A462B00A1444D468C
:103680002200B9465F469B4609E04B463900541C70
:10369000B0475346185D002800D158E122009542FA
:1036A000F3D15B46BB464F46A9461D004C460A9BDC
:1036B000002B00D072E1129B0B9304E655460A9A48
:1036C000A9004919490001330D181878303D01004F
:1036D00030390929F4D9AA460A921D00591C1EE660
:1036E0000B9BA87804CB0235D143C9170A409246F8
:1036F0000B93691C13E60A9B10211A008A431000E1
:1037000011310843814680201A00C0000240110098
:10371000034200D157E64B460822069353460592D2
:1037200008320392002204930C9B0292019318AB7F
:103730002200009359463B003000FFF773F84346E0
:1037400004000B93BFE5002800D174E75346013B0A
:1037500060E7622800D1DFE1582800D1ECE10A9946
:1037600080230A00DB001A4010000A00194200D131
:10377000BDE111239A430C920C9A802311009B0007
:1037800019408C461A4200D046E1802311005B00AC
:10379000194089460B9904310A911A4200D08FE2F0
:1037A00013005B0600D59EE113001B0600D426E340
:1037B0000B9B00229B5ED9175A184A4092B2D90F30
:1037C0000B91002B00D177E2100010AA94464246DC
:1037D0001F23129252466344AA4614944D46040095
:1037E000B946B0461F00139201E0202D0FD02000F3
:1037F0000A21FEF7E3FB01357E19303131702000DC
:103800000A21FEF7DBFB26000400092EEDD8129BEF
:1038100046469846139B4F46A94655469A46149CE1
:103820000C9B069343460593534604930A23039344
:103830000B9B02934B46019318AB22000093594611
:103840003B003000FEF7EEFF0A9B04000B933AE5C5
:1038500020230A9A1A430A926FE680230A9A1B01D0
:103860001A430A9237E6782800D0AFE10A988023FD
:103870000200DB001A4011000200184200D1D0E221
:103880000D239A43100003330A93802302009B0008
:103890001A409446184200D0ACE1802302005B003D
:1038A0001A4091460B9A04320C92184200D04AE218
:1038B000430600D493E20B9B1B780893002B00D0A7
:1038C0004BE110339843002900D146E1002399468B
:1038D00043460593534604930A9B069003930023A3
:1038E00002934B46019318AB2200009359463B00CC
:1038F0003000FEF797FF040065E680230A9A1B015B
:103900001A430A9220230A9A1A430A92E3E50B1BF0
:103910009A460C9B99462B005D469B4622003B0035
:103920002900B04753460134185D0028F6D14B46B4
:103930000C935B46AB461D00B9E6C0239B000A9A78
:10394000A8781A430A92E91C0DE5C023F7E75D4603
:10395000BB464F46ABE6C046912700104346012BBD
:1039600000D8D1E0631E4344B9461D005F46A2461D
:103970008B4622004B46013439002020B047AC4230
:10398000F7D15D46BB464F46A14654460B9B4A467F
:10399000187859463B004444B04714E60C9BA146B6
:1039A000984500D887E64444E41A2B00B846250021
:1039B0005F464C4699462200434601343900202098
:1039C000B047AC42F7D12C00BB464D46474672E6A5
:1039D0000C98804500D81CE243461A19131A9946E0
:1039E0002B004D46B9465F469B460C9122004B4644
:1039F000013439002020B047AC42F7D143460C993E
:103A000001330C930B785D469C46BB464F4660469F
:103A1000002800D02AE64EE607220B9B073393438B
:103A2000013294469C4462460B920CCBD90F0A910A
:103A3000110019435FD0D9171191109151400E9187
:103A4000119959400F910E980F99109A119B801A55
:103A500099410E900F9110AA002394464246994630
:103A6000129252461F336344B046AA464E461494FF
:103A7000B9460E9C0F9D1F00139201E0202E10D01E
:103A8000200029000A220023FEF7D6FA0136303240
:103A90002B00BA550D0022000400002BEED1092A9C
:103AA000ECD8129B4F46B14646469846139B0E945F
:103AB0000F9555469A46149C0C9B069343460593D6
:103AC000534604930A2303930A9B02934B460193A4
:103AD00018AB2200009359463B003000FEF7A2FECF
:103AE0000400FFF7F0FB0B9B1B781A0067E610231E
:103AF0009A430C9240E6002399460028DCD100222C
:103B000000230E920F93A6E70B9B220018785946CC
:103B10003B00B0474C4656E50A9880230200DB0084
:103B20001A401100184200D15FE102000D239A43B0
:103B30000B3B10000A93A8E60A9880230200DB00E2
:103B40001A4011000200184200D166E10D23202026
:103B50009A43033310430A9397E66123820600D504
:103B60004123DBB20A3B0B93434610A91F228C462C
:103B7000129353466244AA46149415974C468046C5
:103B8000B14617000A9E089D139308E03033DBB25C
:103B900001343B55B5420ED3202C0CD0050031002A
:103BA0002800FEF70BFACBB20929EFD90B9A9446FD
:103BB0006344DBB2ECE7129B40469846139B4E46AB
:103BC0005546A1469A46149C159F81E66F2800D061
:103BD00037E10A990C230A009A43802310000A0057
:103BE000DB001A4011000A9A1A4200D021E1082392
:103BF0000A934AE60B9AFA3BFF3B07329A4301339A
:103C00009C46944463460B9313685268089313438D
:103C100012921A1E05D100231032994690430029B2
:103C200041D16122810600D54122D2B20A3A0C92DA
:103C30004246002310A9139252468C46994614928C
:103C40001F330A9A6344AA46159417964C46904629
:103C5000B946089E1F00129D16900AE03032D2B27B
:103C6000002301343A55AB4211D0202C11D006006C
:103C70000D004246002330002900FEF7DDF9D2B2E4
:103C8000092AEBD90C9B9C466244D2B2E8E7B045C6
:103C9000EBD9139B55469846149B4F469A46A1462E
:103CA0001698179E159C43460593534604930A9B0A
:103CB00006900393002308E7002800D0B0E584E5D0
:103CC0000B9B1B68DA0F1100002B00D194E0DA1770
:103CD0009818504010AA914642461F23129252460D
:103CE0004B44A046AA4614970400B14665461F00FF
:103CF0000B91139201E0202D0FD020000A21FEF736
:103D00005DF901357E193031317020000A21FEF74E
:103D100055F926000400092EEDD8129B444698461A
:103D20000B9BAC461900139B55464E469A46149F72
:103D30000C9B0291069343460593534604930A2332
:103D40000393634677E50B9B1B680893002B03D115
:103D500010339843002937D16123820600D54123CF
:103D6000DBB20A3B0B93434610A989461F221293EC
:103D700053464A44AA46B146149415976446804671
:103D80001700089D0A9E139308E03033DBB201341C
:103D90003B55B5420ED3202C0CD005003100280035
:103DA000FEF70CF9CBB20929EFD90B9A944663447C
:103DB000DBB2ECE7129B40469846139B55464E46B5
:103DC0009A46A446159F149C434605935346049374
:103DD0000A9B0690039300230293634682E5030641
:103DE00013D50B9B1B88089368E502000C239A43AC
:103DF0000A3B10000A9348E5002899D16AE70B9B1B
:103E00001B68D9175A184A40D9E40B9B1B680893C2
:103E100054E5030001330C93F9E520230A9A1A4371
:103E20000A920C230A9A00219A43043310000A9341
:103E30002BE50A9B0C9308230A930D230C989843B7
:103E400023E510230A9A9A430C9269280AD10A9909
:103E500080230A00DB001A4010000A00194200D13A
:103E60008AE486E40A991C230A009A4380231000FE
:103E70000A00DB001A4011000A9A1A4202D10A23F2
:103E80000A9302E50A230A93D7E7C04600B585B036
:103E90000391012102900093034813004A4202A9B2
:103EA000FFF7E8F905B000BD3D2A001010B5094A3A
:103EB0000300146884B0002C08D001220091064849
:103EC000524203A9A047012004B010BD00F0A8F998
:103ED0000020F9E7E83800202D2A001000BEFDE799
:103EE000094A03001068002805D00849C3188B420E
:103EF00007D81360704706480449C31810608B4206
:103F0000F7D901204042F5E74033002000000420AB
:103F1000243D002010B5FFF7E1FFC04670B5FDF766
:103F2000F3FE074D074EB54209D20024013E761B31
:103F3000B60808CD984723000134B342F9D170BDCB
:103F40000CF8011014F80110030010B5080011005E
:103F50001B68984710BDC046F0B5C64600B5437D06
:103F600007000D001600002B38D0002A2EDD00219E
:103F70006A1E90466A5C037D4C1C00200A2A0CD005
:103F8000A64216D043461B5D21000D3B5A425341C9
:103F90006A5CDBB24C1C0A2AF2D1002BF0D18142C0
:103FA00017DC022110483B689847A64207D0200042
:103FB000E8E7864203DD311A3B6828189847AD19B7
:103FC000013D2B780D3B5A4253413B7580BCB846AE
:103FD000F0BD091A3B6828189847E2E7036811000A
:103FE00028009847F2E7C04620FC0110F0B5C6460D
:103FF0000B6806000C0000B5802B06D05A1C22600E
:10400000E418267180BCB846F0BD0F4B1D68002D2A
:1040100016D00B1D98460D4F02E02D69002D0FD0D4
:104020002B68002BF9D03B68002B01D0AB42F4D1B8
:10403000280041462268FFF78FFF2D69002DEFD140
:1040400001220023DBE7C046E82E0020F82E0020E6
:10405000F0B5DE4657464E464546E0B585B01700FA
:104060001C0006000D00FDF707FC0023314A121862
:104070004B41802109068B4202D301222E4B524232
:104080002E4908008A461BF07BFB01906B1C03D174
:1040900030001BF08FF90500002C26D0284B9846E5
:1040A000284B1C68002C15D0002F21D1264F02E090
:1040B0002469002C0ED02368002BF9D03B68002B1C
:1040C00001D0A342F4D120002A003100C047246966
:1040D000002CF0D1019B002B28D1280005B0F0BCAA
:1040E000BB46B246A946A046F0BD184B9846D7E756
:1040F000154B994602ABDF1D0A239B4602E024695B
:10410000002CE7D02368002BF9D04B461B68002B0E
:1041100001D0A342F3D12A0031002000C0475B4602
:104120000122390020003B70C047E8E750461BF0F1
:10413000C7FAD2E740420F00FFFFFF7FB818002008
:10414000593F0010E82E0020F82E0020493F0010B3
:104150000A4A1368002B05D10CE01A001B691032C3
:10416000002B07D09842F8D1002902D103691360CF
:10417000016170470029FCD01060FAE7E82E0020AA
:1041800010B500F003FB10BDF0B5CE46474680B534
:1041900083B06B460600DD1D2870FDF76DFB002324
:1041A0001A4A12184B41802109068B4202D3012280
:1041B000174B52421749080088461BF0E1FA164B8C
:1041C00081461C68002C14D0144F02E02469002C96
:1041D0000FD02368002BF9D03B68002B01D0A342FD
:1041E000F4D1200001222900FFF7B6FE2469002C3B
:1041F000EFD14B46002B05D1300003B0C0BCB9460F
:10420000B046F0BD40461BF05BFAF5E740420F00B8
:10421000FFFFFF7FB8180020E82E0020F82E0020B6
:1042200070B504001BF0C6F801230100050001224F
:104230002000FFF70DFF084B1C68002C06D06368B8
:10424000002B05D098472469002CF8D1280070BDB8
:104250002469002CF3D1F9E7E82E0020F0B5CE4612
:10426000474680B5A3B004000D00FDF705FB002311
:10427000294A12184B41802109068B4202D30122A0
:10428000264B5242264F38001BF07AFA00230600D4
:10429000019322002B00234801A9FFF7F7FD019BA2
:1042A0008046002B14D1204B1C68002C06D063687C
:1042B000002B0BD098472469002CF8D1002E25D173
:1042C000404623B0C0BCB946B046F0BD2469ECE717
:1042D000154B1D689946002D1CD0144C02E02D6929
:1042E000002D0FD02B68002BF9D02368002B01D0B4
:1042F000AB42F4D12800019A02A9FFF72DFE2D69E7
:10430000002DEFD14B4601951C68CEE738001BF01D
:10431000D7F9D5E70195D1E740420F00FFFFFF7FB6
:10432000B8180020ED3F0010E82E0020F82E0020E5
:104330000FB400B583B004A901C90191FFF78EFF46
:1043400003B008BC04B018477047C0460022014BB8
:104350001A7070470F3D00204B790020FF2B0BD1C6
:104360008B79002B08D1CB79012B05D1082A03D9F1
:10437000024B8A7809301A707047C0460F3D002002
:104380000120704710B5012901D0012010BD13494B
:104390005379107909781B02034300209942F5D123
:1043A0005378012B08D0022BF0D100206422002189
:1043B000FDF7BCFB0120E9E7D37891781B02194394
:1043C000DB0507D54A0A100001231A407E33194045
:1043D000FDF734FC01204A0A4042F5E70F3D00207A
:1043E00000487047ECFC011070B505001400012076
:1043F000012909D153780020012B05D16379127965
:104400001B021343072B00D070BD21002800024A75
:104410009F3301F06DFAF7E744FC011001230370AC
:104420000048704724FC01104B780A781B021343A4
:104430008A7810B512041A43CB781B0613439622D0
:10444000D200934200D010BD002201201100404252
:10445000FDF7F4FB024B1860024B19607047C04631
:10446000982500209C25002010B5024B1878FCF7F9
:10447000DBFA10BD123D0020154B70B51A68002AFA
:1044800022D0EFF3108172B610680028FCD0BFF381
:104490005F8F00200F4A596010701B68BFF35F8F59
:1044A000186081F31088002400250B4E3078FCF74B
:1044B000AFFA002804D1002400252900200070BD97
:1044C0003078FCF7B1FAF8E7FA240025A400ECE70D
:1044D00020390020133D0020123D002070B504005B
:1044E00000200E0001F024FB002836D0002001F04F
:1044F00035FB002831D0FDF7BFF90023184A121808
:104500004B41802109068B4216D2164D28001BF024
:1045100037F9002821D0002001F00AFB00280FD134
:1045200001200021404200F013FD032464422800D2
:104530001BF0C6F8200070BD01220B4B5242E4E78D
:10454000002001F00BFB0028EAD0210032000020FF
:1045500001F00EFB041EEAD1E7E703246442E9E719
:1045600040420F00743B0020FFFFFF7F10B5FDF7B6
:1045700083F900230E4A12184B41802109068B4211
:1045800002D301220B4B52420B4C20001BF0F8F8D7
:1045900000280CD001200021404200F0D9FC00206E
:1045A00001F030FB0028F5D120001BF089F810BD88
:1045B00040420F00FFFFFF7F743B0020F8B5DE464E
:1045C000574680B505000C00FDF756F90023374A21
:1045D00012184B41802109068B4202D30122344B31
:1045E0005242344908008A461BF0CAF8002803D119
:1045F000C0BCBB46B246F8BD002001F099FA0028C5
:104600004AD00026002C43DD2B4B9B4614E0A91911
:10461000002001F031FB070001200021404200F0A2
:1046200097FC002001F0EEFAFDF726F9224BF6196F
:1046300018605960B4422BDD002001F03DFBA71B40
:104640000200B84200DD3A00002AE0D1012000213A
:10465000404200F07DFC002001F0D4FA002001F07F
:1046600067FA002814D0002001F026FB0028E1D1D1
:10467000FDF702F95B460F001A685B68002184466B
:104680000E4812184B419F4202D8D3D19445D1D93C
:1046900050461BF015F8ABE700200021064B1860D0
:1046A000596050461BF00CF8A2E7C04640420F008C
:1046B000FFFFFF7F743B0020A01A002020A107000D
:1046C00030B52B4C85B0002120001BF039F80028B4
:1046D0001CD1284B1A68002A16D0EFF3108172B64D
:1046E00010680028FCD0BFF35F8F01242248596076
:1046F00002781B68D2B20470BFF35F8F002018608D
:1047000081F31088002A17D005B030BD01200021A8
:10471000404200F01DFC002001F020FA05002000BE
:104720001AF0CEFF002DEFD0144B1B68002BEBD0FE
:10473000134A10689847E7E7FCF7A2FE0400FDF76C
:104740009BF8FA220023920012184B41802109069F
:104750008B4202D301220B4B5242012102910021D4
:104760000191094920000091FCF78EFECCE7C0467C
:10477000743B002020390020133D002098250020A4
:104780009C250020FFFFFF7F79440010D02310B547
:104790001B0684B01C68FCF773FEFCF771FFA04297
:1047A00002D0002004B010BD2A4B002100201B784D
:1047B00001F07CFD28480368002B47D00120FCF75E
:1047C000C9FBFF23254C264920701840FCF746F909
:1047D00020780121FCF70AF90520FCF72DF90028C3
:1047E00026D1082200211F48FDF7C6FFFCF748FE2E
:1047F0000400FDF741F8FA220023920012184B4101
:10480000802109068B4202D30122174B524201211B
:10481000029100210191154920000091FCF734FE1E
:104820000028BEDB12480121FFF792FC0120B9E706
:104830000120FCF7A9F80B4B01001800FCF712FC53
:10484000002205200B49FCF733F9EBE7FCF7E0FB0E
:10485000B4E7C046E0F80510743B0020123D00208C
:10486000C146001020390020FFFFFF7F794400106F
:10487000001300206944001000487047C0FD01107B
:10488000004870476CFD011010B50400174803780C
:10489000002B20D0002C06D1154B16484380063B38
:1048A000FF3B038010BD052C19D8134BA400E05822
:1048B00012490123013804E001330A800231142B2C
:1048C0000FD0C25C002AF7D1C022DBB25B0092009D
:1048D00008481343E5E7112100F022F8DAE7002049
:1048E000E0E7CA2303489B00DBE7C046CC3C00203E
:1048F00009040000C02E002054FD0110C22E00202B
:1049000010B5024800F0E0F810BDC0464039002064
:1049100010B508220149FDF735FF10BD40390020D0
:1049200030B54B1E012900D1A7E0664A11780D0968
:104930002C0030349F2900D9A2E00470012B00D153
:10494000BEE00F21147821400C003034092900D931
:1049500098E04470022B00D1B2E054782509290078
:1049600030319F2C00D990E08170032B00D1A7E05B
:104970000F2121400C003034092900D987E0C47090
:10498000042B00D19CE094782509290030319F2C1C
:1049900000D97FE00171052B00D191E00F2121406A
:1049A0000C003034092900D976E04471062B00D17F
:1049B00086E0D4782509290030319F2C00D96EE09B
:1049C0008171072B00D17BE00F2121400C00303496
:1049D000092966D8C471082B00D171E01479250922
:1049E000290030319F2C5FD80172092B68D00F212C
:1049F00021400C003034092958D844720A2B5FD06A
:104A000054792509290030319F2C52D881720B2B03
:104A100056D00F2121400C00303409294BD8C472E4
:104A20000C2B4DD094792509290030319F2C00D9C9
:104A3000073101730D2B43D00F2121400C0030347E
:104A4000092901D937310C0044730E2B38D0D179A4
:104A50000C09220030329F2900D9073282730F2BB4
:104A60002ED00F220A4011003731092A01D83032E6
:104A70001100C173102B23D010300023037030BD00
:104A800007345AE737310C0063E707316CE73731F9
:104A90000C0074E707317DE737310C0085E70731FB
:104AA0008EE737310C0095E707319DE737310C0071
:104AB000A3E70731AAE737310C00C4720C2BB1D140
:104AC000C018DAE74039002030B5002589B004006D
:104AD0000922002101A80095FDF74EFE09220021C0
:104AE00005A80495FDF748FE4B236A4668461370F7
:104AF00004A90D221AF0DCFD1521082220006944CA
:104B0000FDF740FE09B030BDF8B500F043F90C23C5
:104B1000194DFF22AB6705201849FBF7C9FF184C58
:104B2000402200212000FDF727FE40270023012618
:104B30002121144A66702783A260136063545F3199
:104B4000618445396354104A10496360E2602787E5
:104B5000A1620B606362E2621AF00AFE80239B0589
:104B60002E64EB6490230A4A0120EA508022094B0C
:104B70005202DA64F8BDC0460000115091070020CF
:104B80004833002084001050000110508000105065
:104B900010D001000020115010B501210520FBF7B5
:104BA00025FF10BD10B500220021024800F012F9C7
:104BB00010BDC04668330020044B1970002904D092
:104BC00080219023024A8902D1507047013D002084
:104BD000002011500B785B0602D14B78052B00D0DA
:104BE00070478A78014B1A60FAE7C04600001150FE
:104BF000F0B5C646C87800B58007830F1800012BB2
:104C000060D08F780A794B797F213940FC091B02EB
:104C10004E001343334D32195201AA1897700127E1
:104C20006740577000275B055B0DD7701383D07604
:104C3000B846CA00012C32D02B4FBC468F016244CB
:104C4000BC46AC446746BA6047461760002932D07C
:104C5000264AC90090466246414451603F223F3394
:104C60009343022837D0224937190A687F01D318A5
:104C70000B602049EF19FA608B422ED83619760165
:104C8000AD19EB7E1C499B064A4013438022120655
:104C900013436A681360012080BCB846F0BD174F0B
:104CA000BC468F016244BC46AC446746BA62474684
:104CB0001760002908D1002364012C196360104B90
:104CC000E360E8E70020E7E70B4AC9009046624648
:104CD00041445162C2E75B00C5E7FDF70FF8FA688F
:104CE000CCE7C04648330020840010500400105028
:104CF000FC380020FF0F10500000105080001050B2
:104D00000001105010B51AF033FD10BD10B57F2012
:104D10000C0020404000E409110000191A00034B68
:104D20004001C01800F056F8012010BD48330020A3
:104D30007F23180010B50840CA090B4203D1074968
:104D40007D3B9B1A8B66400080188022044B4001FB
:104D50000021C01812011AF02BFD10BD00201150C7
:104D6000483300207F22130010B50B400A4200D1C7
:104D700010BDC9095B005B1804485B01C018002323
:104D800000220349C3701AF013FDF1E748330020F5
:104D9000FFF7FFFF80220A4B520410B51A60094B3F
:104DA00009491A6010000B689843FBD1802200214A
:104DB00052010648FDF7E0FC0922054B5A6710BD79
:104DC00000E0004000F0004008C00040000010502B
:104DD00000001150002310B5C38201338282837614
:104DE000016104001AF07CFC002804D0802190238B
:104DF000074A8902D15020001AF07AFC002802D01C
:104E00000123237710BD20001AF0C2FCFAE7C04648
:104E1000002011507047C0467047C04600207047C0
:104E2000002070477047C0467047C0467047C04674
:104E30007047C046024B5878431E9841C0B2704735
:104E4000381F0020024B18784007C00F7047C0463B
:104E5000381F0020F0B5D6464F464646C0B5314B08
:104E600007009A461B780E00FF2B01D0012044E07A
:104E7000002941D0002154222B48FDF77DFC00225F
:104E80002A4C2B4B20001A70FCF7C2F8294B1C60EF
:104E9000294C2000143CFCF7D7F8200001F0FEFD5F
:104EA000264B274D1C60274B002B2BD02800FFF7EB
:104EB000B5FA254B2A7818602449002489462249EE
:104EC0000023884610E043461B6862019B18002BB4
:104ED00012D05B68002B0FD098472A780134E4B2D7
:104EE000511C2300A1420FDBA242ECD89B1A5B01AC
:104EF0004B445B68002BEFD10020E0BCBA46B146C2
:104F0000A846F0BD2A78D7E75346310038001F7015
:104F1000FFF7FAFD0028EFD03800FFF73DFE012033
:104F2000EBE7C04634130020381F0020301F00205C
:104F3000023D00208C1F00202C130020901F002019
:104F4000003D00201D440010881D0020D8FE0110E7
:104F5000F0B5DE4657464E464546E0B5CE4B91B0DD
:104F600002931B78FF2B00D138E1CC4BCC4E9B46F3
:104F70005F46CC4B0DAC0193CB4B009335686A690F
:104F8000EFF3108172B61368002BFCD0BFF35F8F74
:104F9000A9612800210001F0BFFB6A69AB69BFF37A
:104FA0005F8F0021116083F31088002800D115E184
:104FB0006378082BE2D89B00FB589F466368002B60
:104FC000DCD0A0689847D9E77F222179B54D0A4007
:104FD0005300EB189846C8098044404601233030FE
:104FE00005799D430571057903339D430571002AB9
:104FF00000D1FAE04346AD4A1B7D1278934200D3BC
:10500000E9E0AB4A5B011568ED18002D00D1E5E041
:10501000A36862792078AD69A847AFE7A54A1378FD
:10502000002B00D1DAE01378013BDBB21370137868
:10503000002BA3D101229B4D01212B780420134387
:105040002B703423EA5C8A43EA54EA5C8243EA54D4
:105050000133EA5C8A43EA54EA5C8243EA542378E7
:1050600000209B4600F0A4FC602223791A40602AAD
:105070000DD0402A00D1CAE0DB06DB0E012B00D1A7
:1050800020E1022B00D1DCE0002B00D1CBE0207826
:105090000021FFF74DFE80212078FFF749FE6DE7E4
:1050A000804D2B78DB0700D468E7FFF7C1FE65E78A
:1050B000019BDB78DB0700D460E76068FFF7ACFE9C
:1050C0005CE7784D2B78DB0700D457E7287800079A
:1050D000C00FFFF7ABFE51E72378734999468B4623
:1050E000724B734998468A4639001A78474600231E
:1050F000B04600254E46894610E053461B686A01BB
:105100009B18002B00D176E0DB68300098473A7896
:105110000135EDB2511C2B008D4244DCAA42ECD883
:105120009B1A5B015B44EFE72378614999465F4B2B
:105130008A4698463100BB464E461A780025002321
:10514000474689460FE053461B686A019B18002BAF
:1051500055D0DB68300098473A780135EDB2511CE4
:105160002B008D4207DC9542EDD39B1A009A5B0120
:1051700094466344EDE7019D542200212800FDF789
:10518000FBFA1022FF214C48FDF7F6FA28002022F6
:10519000FF2114304E465F46FDF7EEFA00F0FEFBAD
:1051A000FFF742FEEAE63F4D542200212800FDF7BA
:1051B000E3FA1022FF21281DFDF7DEFA2800202245
:1051C000FF21143046464F46FDF7D6FA00F0E6FBC5
:1051D0002379AB70D2E6501C984213DA11B0F0BCC0
:1051E000BB46B246A946A046F0BDA36862792078C6
:1051F00000F0F2FBC2E646464F462A4DE6E74E4631
:105200005F46CBE7284D9B1A5B015D1900E72B48F1
:1052100000F0CEFB012158460EAAFFF7E5F8002862
:1052200000D0ABE633E7202A00D156E1002A00D0B7
:105230002DE76379092B00D929E7214A9B00D35830
:105240009F467023217A0B4200D020E7C80982468E
:105250000F330B405B0098461448EB1853441B7DFA
:1052600000789946834261D3431C4B4500DA4EE1F6
:105270004B461B1A5B0199460B488144002A00D11A
:105280004AE14B46586900F093FB4B4601215846D2
:105290005B690EAA9847C2E73413002030FE011064
:1052A000901F0020381F0020D8FE0110003D002074
:1052B000881D0020023D00203C1F0020E943001013
:1052C00054FE0110237A0F2B00D9E0E6D74AEB18E1
:1052D0001B791578AB4236D3691C994200DAD6E6C1
:1052E0005D1BD34B6D01ED18686900F061FB012176
:1052F00058466B690EAA9847002800D03EE6602207
:10530000150023791D401A4200D0C0E663790A3B9C
:10531000012B00D9BBE600F04BFB63790A2B00D1CF
:105320008EE158460EA900F0CDFA27E6C1485B0190
:10533000006881469944002A00D1EDE04B46002BDD
:1053400000D1A4E69DE7BB4A5B011568ED18002D6E
:10535000CAD19CE6A37999466B789945E1D06B78E0
:10536000002B00D033E14B466B70002B00D12BE1BA
:1053700048460138C0B2FFF783FA002800D17EE129
:1053800043780793022B00D079E10122C179B1461D
:105390008B11491113400A40302112015B01134364
:1053A0002A78A8468A4313432B7009239A468244DD
:1053B0005646BA46C37882781B021343C318059336
:1053C0009A4B04939A4B08939A4B09939A4B0A93DE
:1053D000059BB34200D855E1737801220B2B03D112
:1053E0003378F278F6187378042B00D044E1059BEB
:1053F00000279B1B9BB20693049B0B921D780023F6
:1054000003931BE0099A7B011568ED18002D00D16C
:1054100032E1310058462B69069A9847844608289D
:1054200003D9069A824200D313E1049B01371D7809
:10543000FFB26B1C03979F4200DD1DE1AF42E1D339
:10544000039B5D1B089B6D019C466544E1E76B78FF
:105450000CAA02321370584601230EA900F048FA34
:105460008CE5E3881A0AD8B20F2A00D90FE67349EF
:105470009300CB589F460EA800F0A0FA5846A17999
:10548000FFF790FB02222B7813432B7076E5E3881D
:10549000012B00D0FBE508222B78584693430EA938
:1054A0002B7000F00FFA69E5022029780CAB9A1CEA
:1054B0008B068908DB0F01400B43138058460223FB
:1054C0000EA900F015FA59E5E388012B00D0DEE5BE
:1054D00008222B7813432B7023E7237A0F2B00D954
:1054E000D5E5EB181D79514B1B789D4228D2514BC5
:1054F0006D011B685D19002D00D1C8E5686900F0D9
:1055000057FA012158466B690EAA984787E6002A88
:1055100000D0BCE500239946627902201300039273
:105520008343012B15D0002A00D0B0E52B00434463
:10553000534430331B790CAA9B07DB0F0232BCE7C4
:105540005A1CAA4200DAA2E5ED1A394B6D01ED189A
:10555000D4E7E388002B12D1029B1878039B012B20
:1055600023D0FFF7E5FB43460221EB1853443033C9
:105570001A790A4301211A711A790A431A714B46A2
:10558000002B00D1FAE4586900F012FA4B460121D1
:105590005B690EAA58469847002000F009FA3523A7
:1055A000EB5CDB0700D5E9E4BBE6FFF7DBFB43463A
:1055B0000221EB18534430331A798A431A711A794D
:1055C00003998A431A71DAE7FFF72EFCA9E6002156
:1055D0005846FFF7F1FA5846FFF794FBAB781449A9
:1055E00003930491114B134998461A7805910023AF
:1055F00029001D008A4610E0059B6A011B689B1864
:10560000002B58D0DB685846984743461A78013536
:10561000EDB2511C2B008D4239DC9542ECD39B1A24
:10562000049A5B0194466344ECE7C046003D0020C9
:10563000D8FE0110881D00204C1F00207CFE0110A8
:105640000CAB9A1C584601230EA9157000F050F9B6
:1056500094E40B9A012A4FD0002A3CD00023B07862
:1056600004E00133DBB20F71934234D21918C9B28E
:1056700041440D79FF2DF4D04E4645465746002350
:105680006B7004E54E465746FFF7CCFB49E655469E
:10569000542200212800FDF76FF81022FF21281D59
:1056A000FDF76AF828002022FF211430FDF764F886
:1056B000039BAB7057E65546FAE7FEF791FE021ED4
:1056C00000D1E4E4D37891781B020B4358460EA92D
:1056D00000F00EF9A3E565463B002A0031000A9868
:1056E00000F08AFEAC46049B039A1B7866440133A3
:1056F000934200DB6CE6BFE7164B29699942ADD1B6
:10570000079AABE7FFF78AFB021E00D1BFE45846B9
:1057100013780EA900F0ECF881E52189FFF7B4F8C1
:10572000021EF4D1B3E4022A0FD0FFF779FB021E68
:10573000C8D1ACE4FFF7A0F8021E00D1A7E4122301
:1057400058460EA900F0D4F869E5FFF799F8021E53
:10575000B8D19CE4B95D0010F8B557464E46DE4618
:1057600045460C00E0B516001F00002A3CD01F4B38
:1057700000259A46702399461D4B9B4617E05B46D1
:105780002000997800F0FAFD00281FD02100404643
:10579000FFF72EFA002819D0A378DA09012A1CD0C5
:1057A0000A9A013513702378E418B5421CDA63783D
:1057B000052B0BD1E3789B079B0FBB4206D15346C9
:1057C0004A461B789846A3781A42D8D00020F0BCED
:1057D000BB46B246A946A046F8BD0B9A01351370E8
:1057E0002378E418B542E2DB0120F0E7341300200F
:1057F000381F0020702270B5094B0C001D788B7883
:105800001A4201D0002070BD064B2000997800F0AC
:10581000B5FD0028F6D021002800FFF7E9F9F2E7EE
:1058200034130020381F00200B007F2010B51840D3
:10583000DB0934334000044AC018044B1168C01817
:1058400000F058FD10BDC0468C1F0020381F0020FE
:105850000B007F2010B51840DB0934334000044AA8
:10586000C018044B1168C01800F06CFD10BDC04694
:105870008C1F0020381F002070B57F240F480C407B
:1058800064000419CD09641930342079C00701D5AA
:10589000002070BD0126257909483543007825711F
:1058A000FFF734FA0028F4D10122237993432371BE
:1058B0002379033293432371EAE7C046381F00205F
:1058C0003413002070B5094C0600082220000D009A
:1058D000FCF758FF00238021E360A3602B783000A1
:1058E000994300220023FFF7C7FF70BD181F002057
:1058F000F8B5CE4647469046264E80B581460822EA
:1059000030000D001F00FCF73DFF4346B36000234D
:10591000F381EC79AB7924021C43231CBC4200D9EF
:105920003B1C9FB2B381002C0ED0002F18D04346F1
:10593000002B2CD03B1C402F1BD89FB233787F2BE1
:105940001CD80021144A0FE080212B7800229943B3
:1059500048460023FFF790FFC0BCB946B046F8BDEB
:105960007F230022317899433B004846FFF784FFAC
:10597000F2E740239FB233787F2BE2D9064C3A00FE
:1059800041462000FCF7FEFE80212200ECE70020CB
:10599000E2E7C046181F0020D81E002010B51422D0
:1059A00000210248FCF7E8FE10BDC046181F002089
:1059B000014B18617047C046181F002010B5054CF8
:1059C000010008222000FCF7DDFE0023A360E36055
:1059D00010BDC046181F002070B5384C1D0023783C
:1059E0000600DA09C9098A4210D00020002D00D033
:1059F00070BD21003000FFF7EDF82369002B03D0C4
:105A000022000321300098470120F1E7A0687F2B96
:105A100005D8002834D02A002949FCF7B3FEE289D2
:105A2000A1685219E38892B24919E281A1609342B8
:105A300014D03F2D12D9A389981A051C80B2402892
:105A40002AD82078ADB27F2828D800219A4232D0B7
:105A50001B4A2B003000FFF70FFFC9E72369002B1B
:105A600005D0220002213000984700280AD080216A
:105A700023780022994330000023FFF7FDFEB7E7AB
:105A80000020B5E700213000FFF752F930008021F7
:105A9000FFF74EF90120ABE74025D2E79A4207D045
:105AA000074C2A002000FCF76DFE80212200D0E781
:105AB00080210022CDE70022CBE7C046181F00203E
:105AC000D81E002070B50500FFF7B4F9002800D1FA
:105AD00070BDFFF7B7F90028FAD1C8236B43124C09
